{"abi":[{"type":"constructor","inputs":[{"name":"owner_","type":"address","internalType":"address"},{"name":"usdc_","type":"address","internalType":"address"}],"stateMutability":"nonpayable"},{"type":"function","name":"activateLeague","inputs":[{"name":"leagueId","type":"bytes32","internalType":"bytes32"}],"outputs":[],"stateMutability":"nonpayable"},{"type":"function","name":"cancelLeague","inputs":[{"name":"leagueId","type":"bytes32","internalType":"bytes32"}],"outputs":[],"stateMutability":"nonpayable"},{"type":"function","name":"createLeague","inputs":[{"name":"leagueId","type":"bytes32","internalType":"bytes32"},{"name":"buyIn","type":"uint256","internalType":"uint256"},{"name":"maxPlayers","type":"uint256","internalType":"uint256"}],"outputs":[],"stateMutability":"nonpayable"},{"type":"function","name":"getLeague","inputs":[{"name":"leagueId","type":"bytes32","internalType":"bytes32"}],"outputs":[{"name":"buyIn","type":"uint256","internalType":"uint256"},{"name":"pool","type":"uint256","internalType":"uint256"},{"name":"maxPlayers","type":"uint256","internalType":"uint256"},{"name":"currentPlayers","type":"uint256","internalType":"uint256"},{"name":"status","type":"uint8","internalType":"enum LeagueManager.LeagueStatus"}],"stateMutability":"view"},{"type":"function","name":"getParticipants","inputs":[{"name":"leagueId","type":"bytes32","internalType":"bytes32"}],"outputs":[{"name":"","type":"address[]","internalType":"address[]"}],"stateMutability":"view"},{"type":"function","name":"hasJoined","inputs":[{"name":"","type":"bytes32","internalType":"bytes32"},{"name":"","type":"address","internalType":"address"}],"outputs":[{"name":"","type":"bool","internalType":"bool"}],"stateMutability":"view"},{"type":"function","name":"isParticipant","inputs":[{"name":"leagueId","type":"bytes32","internalType":"bytes32"},{"name":"player","type":"address","internalType":"address"}],"outputs":[{"name":"","type":"bool","internalType":"bool"}],"stateMutability":"view"},{"type":"function","name":"joinLeague","inputs":[{"name":"leagueId","type":"bytes32","internalType":"bytes32"}],"outputs":[],"stateMutability":"nonpayable"},{"type":"function","name":"leagues","inputs":[{"name":"","type":"bytes32","internalType":"bytes32"}],"outputs":[{"name":"id","type":"bytes32","internalType":"bytes32"},{"name":"buyIn","type":"uint256","internalType":"uint256"},{"name":"maxPlayers","type":"uint256","internalType":"uint256"},{"name":"pool","type":"uint256","internalType":"uint256"},{"name":"status","type":"uint8","internalType":"enum LeagueManager.LeagueStatus"}],"stateMutability":"view"},{"type":"function","name":"owner","inputs":[],"outputs":[{"name":"","type":"address","internalType":"address"}],"stateMutability":"view"},{"type":"function","name":"settleLeague","inputs":[{"name":"leagueId","type":"bytes32","internalType":"bytes32"},{"name":"winners","type":"address[]","internalType":"address[]"},{"name":"payouts","type":"uint256[]","internalType":"uint256[]"}],"outputs":[],"stateMutability":"nonpayable"},{"type":"function","name":"usdc","inputs":[],"outputs":[{"name":"","type":"address","internalType":"contract IERC20"}],"stateMutability":"view"},{"type":"event","name":"LeagueActivated","inputs":[{"name":"leagueId","type":"bytes32","indexed":true,"internalType":"bytes32"}],"anonymous":false},{"type":"event","name":"LeagueCancelled","inputs":[{"name":"leagueId","type":"bytes32","indexed":true,"internalType":"bytes32"},{"name":"refundPerPlayer","type":"uint256","indexed":false,"internalType":"uint256"}],"anonymous":false},{"type":"event","name":"LeagueCreated","inputs":[{"name":"leagueId","type":"bytes32","indexed":true,"internalType":"bytes32"},{"name":"buyIn","type":"uint256","indexed":false,"internalType":"uint256"},{"name":"maxPlayers","type":"uint256","indexed":false,"internalType":"uint256"}],"anonymous":false},{"type":"event","name":"LeagueSettled","inputs":[{"name":"leagueId","type":"bytes32","indexed":true,"internalType":"bytes32"},{"name":"winners","type":"address[]","indexed":false,"internalType":"address[]"},{"name":"payouts","type":"uint256[]","indexed":false,"internalType":"uint256[]"}],"anonymous":false},{"type":"event","name":"PlayerJoined","inputs":[{"name":"leagueId","type":"bytes32","indexed":true,"internalType":"bytes32"},{"name":"player","type":"address","indexed":true,"internalType":"address"},{"name":"poolTotal","type":"uint256","indexed":false,"internalType":"uint256"}],"anonymous":false},{"type":"error","name":"AlreadyJoined","inputs":[]},{"type":"error","name":"InvalidBuyIn","inputs":[]},{"type":"error","name":"InvalidMaxPlayers","inputs":[]},{"type":"error","name":"InvalidPayouts","inputs":[]},{"type":"error","name":"LeagueExists","inputs":[]},{"type":"error","name":"LeagueFull","inputs":[]},{"type":"error","name":"LeagueNotActive","inputs":[]},{"type":"error","name":"LeagueNotFound","inputs":[]},{"type":"error","name":"LeagueNotOpen","inputs":[]},{"type":"error","name":"NotOwner","inputs":[]},{"type":"error","name":"TransferFailed","inputs":[]}],"bytecode":{"object":"0x60c060405234801561000f575f5ffd5b5060405161209a38038061209a833981810160405281019061003191906101da565b5f73ffffffffffffffffffffffffffffffffffffffff168273ffffffffffffffffffffffffffffffffffffffff160361009f576040517f08c379a000000000000000000000000000000000000000000000000000000000815260040161009690610272565b60405180910390fd5b5f73ffffffffffffffffffffffffffffffffffffffff168173ffffffffffffffffffffffffffffffffffffffff160361010d576040517f08c379a0000000000000000000000000000000000000000000000000000000008152600401610104906102da565b60405180910390fd5b8173ffffffffffffffffffffffffffffffffffffffff1660808173ffffffffffffffffffffffffffffffffffffffff16815250508073ffffffffffffffffffffffffffffffffffffffff1660a08173ffffffffffffffffffffffffffffffffffffffff168152505050506102f8565b5f5ffd5b5f73ffffffffffffffffffffffffffffffffffffffff82169050919050565b5f6101a982610180565b9050919050565b6101b98161019f565b81146101c3575f5ffd5b50565b5f815190506101d4816101b0565b92915050565b5f5f604083850312156101f0576101ef61017c565b5b5f6101fd858286016101c6565b925050602061020e858286016101c6565b9150509250929050565b5f82825260208201905092915050565b7f6f776e65722072657175697265640000000000000000000000000000000000005f82015250565b5f61025c600e83610218565b915061026782610228565b602082019050919050565b5f6020820190508181035f83015261028981610250565b9050919050565b7f75736463207265717569726564000000000000000000000000000000000000005f82015250565b5f6102c4600d83610218565b91506102cf82610290565b602082019050919050565b5f6020820190508181035f8301526102f1816102b8565b9050919050565b60805160a051611d5061034a5f395f81816104d20152818161088701528181610dfb015261122c01525f81816106e7015281816108ab01528181610bd801528181610f6b0152610ff10152611d505ff3fe608060405234801561000f575f5ffd5b50600436106100b2575f3560e01c8063731751111161006f578063731751111461018857806376c1ea06146101bc578063873228e4146101f05780638da5cb5b1461020c578063c44a89231461022a578063f9ff1b291461025a576100b2565b806302cc90c7146100b65780630b0235be146100e65780632c565ccf1461011657806330f69aa9146101325780633e413bee1461014e578063431a5e871461016c575b5f5ffd5b6100d060048036038101906100cb9190611501565b610276565b6040516100dd9190611559565b60405180910390f35b61010060048036038101906100fb9190611572565b6102a0565b60405161010d9190611654565b60405180910390f35b610130600480360381019061012b9190611572565b61033e565b005b61014c60048036038101906101479190611572565b6106e5565b005b610156610885565b60405161016391906116cf565b60405180910390f35b6101866004803603810190610181919061171b565b6108a9565b005b6101a2600480360381019061019d9190611572565b610b45565b6040516101b39594939291906117ed565b60405180910390f35b6101d660048036038101906101d19190611572565b610b99565b6040516101e795949392919061184d565b60405180910390f35b61020a60048036038101906102059190611572565b610bd6565b005b610214610f69565b60405161022191906118ad565b60405180910390f35b610244600480360381019061023f9190611501565b610f8d565b6040516102519190611559565b60405180910390f35b610274600480360381019061026f919061197c565b610fef565b005b6001602052815f5260405f20602052805f5260405f205f915091509054906101000a900460ff1681565b60605f5f8381526020019081526020015f2060050180548060200260200160405190810160405280929190818152602001828054801561033257602002820191905f5260205f20905b815f9054906101000a900473ffffffffffffffffffffffffffffffffffffffff1673ffffffffffffffffffffffffffffffffffffffff16815260200190600101908083116102e9575b50505050509050919050565b5f5f5f8381526020019081526020015f2090505f5f1b815f01540361038f576040517f5506ddd200000000000000000000000000000000000000000000000000000000815260040160405180910390fd5b5f60038111156103a2576103a161177a565b5b816004015f9054906101000a900460ff1660038111156103c5576103c461177a565b5b146103fc576040517f23c2ea4400000000000000000000000000000000000000000000000000000000815260040160405180910390fd5b8060020154816005018054905010610440576040517f154fbf0f00000000000000000000000000000000000000000000000000000000815260040160405180910390fd5b60015f8381526020019081526020015f205f3373ffffffffffffffffffffffffffffffffffffffff1673ffffffffffffffffffffffffffffffffffffffff1681526020019081526020015f205f9054906101000a900460ff16156104cf576040517e3b268200000000000000000000000000000000000000000000000000000000815260040160405180910390fd5b5f7f000000000000000000000000000000000000000000000000000000000000000073ffffffffffffffffffffffffffffffffffffffff166323b872dd333085600101546040518463ffffffff1660e01b815260040161053193929190611a0d565b6020604051808303815f875af115801561054d573d5f5f3e3d5ffd5b505050506040513d601f19601f820116820180604052508101906105719190611a6c565b9050806105aa576040517f90b8ec1800000000000000000000000000000000000000000000000000000000815260040160405180910390fd5b8160050133908060018154018082558091505060019003905f5260205f20015f9091909190916101000a81548173ffffffffffffffffffffffffffffffffffffffff021916908373ffffffffffffffffffffffffffffffffffffffff1602179055508160010154826003015f8282546106239190611ac4565b925050819055506001805f8581526020019081526020015f205f3373ffffffffffffffffffffffffffffffffffffffff1673ffffffffffffffffffffffffffffffffffffffff1681526020019081526020015f205f6101000a81548160ff0219169083151502179055503373ffffffffffffffffffffffffffffffffffffffff16837f65525cf08411b7a61d237681a43890956ad2e2ede88afd947f58eb4158c37f9584600301546040516106d89190611af7565b60405180910390a3505050565b7f000000000000000000000000000000000000000000000000000000000000000073ffffffffffffffffffffffffffffffffffffffff163373ffffffffffffffffffffffffffffffffffffffff161461076a576040517f30cd747100000000000000000000000000000000000000000000000000000000815260040160405180910390fd5b5f5f5f8381526020019081526020015f2090505f5f1b815f0154036107bb576040517f5506ddd200000000000000000000000000000000000000000000000000000000815260040160405180910390fd5b5f60038111156107ce576107cd61177a565b5b816004015f9054906101000a900460ff1660038111156107f1576107f061177a565b5b14610828576040517f23c2ea4400000000000000000000000000000000000000000000000000000000815260040160405180910390fd5b6001816004015f6101000a81548160ff0219169083600381111561084f5761084e61177a565b5b0217905550817fcb329fc9c809dcf6b2e48a7db16150ded3c6cbb8af6f99aff2cbb76e20382a1e60405160405180910390a25050565b7f000000000000000000000000000000000000000000000000000000000000000081565b7f000000000000000000000000000000000000000000000000000000000000000073ffffffffffffffffffffffffffffffffffffffff163373ffffffffffffffffffffffffffffffffffffffff161461092e576040517f30cd747100000000000000000000000000000000000000000000000000000000815260040160405180910390fd5b5f5f1b5f5f8581526020019081526020015f205f01541461097b576040517fc5f319a900000000000000000000000000000000000000000000000000000000815260040160405180910390fd5b5f82036109b4576040517f56f970ba00000000000000000000000000000000000000000000000000000000815260040160405180910390fd5b60028110806109c35750601481115b156109fa576040517f65d4be2900000000000000000000000000000000000000000000000000000000815260040160405180910390fd5b6040518060c001604052808481526020018381526020018281526020015f81526020015f6003811115610a3057610a2f61177a565b5b81526020015f67ffffffffffffffff811115610a4f57610a4e611b10565b5b604051908082528060200260200182016040528015610a7d5781602001602082028036833780820191505090505b508152505f5f8581526020019081526020015f205f820151815f01556020820151816001015560408201518160020155606082015181600301556080820151816004015f6101000a81548160ff02191690836003811115610ae157610ae061177a565b5b021790555060a0820151816005019080519060200190610b029291906113ca565b50905050827fc54303970896492a82920f0a0b9191f1ae1e8c1e15874a94ffb82dfc459258a58383604051610b38929190611b3d565b60405180910390a2505050565b5f5f5f5f5f5f5f5f8881526020019081526020015f2090508060010154816003015482600201548360050180549050846004015f9054906101000a900460ff16955095509550955095505091939590929450565b5f602052805f5260405f205f91509050805f015490806001015490806002015490806003015490806004015f9054906101000a900460ff16905085565b7f000000000000000000000000000000000000000000000000000000000000000073ffffffffffffffffffffffffffffffffffffffff163373ffffffffffffffffffffffffffffffffffffffff1614610c5b576040517f30cd747100000000000000000000000000000000000000000000000000000000815260040160405180910390fd5b5f5f5f8381526020019081526020015f2090505f5f1b815f015403610cac576040517f5506ddd200000000000000000000000000000000000000000000000000000000815260040160405180910390fd5b60026003811115610cc057610cbf61177a565b5b816004015f9054906101000a900460ff166003811115610ce357610ce261177a565b5b1480610d225750600380811115610cfd57610cfc61177a565b5b816004015f9054906101000a900460ff166003811115610d2057610d1f61177a565b5b145b15610d59576040517f23c2ea4400000000000000000000000000000000000000000000000000000000815260040160405180910390fd5b5f816001015490505f82600501805480602002602001604051908101604052809291908181526020018280548015610de357602002820191905f5260205f20905b815f9054906101000a900473ffffffffffffffffffffffffffffffffffffffff1673ffffffffffffffffffffffffffffffffffffffff1681526020019060010190808311610d9a575b505050505090505f5f90505b8151811015610ef5575f7f000000000000000000000000000000000000000000000000000000000000000073ffffffffffffffffffffffffffffffffffffffff1663a9059cbb848481518110610e4857610e47611b64565b5b6020026020010151866040518363ffffffff1660e01b8152600401610e6e929190611b91565b6020604051808303815f875af1158015610e8a573d5f5f3e3d5ffd5b505050506040513d601f19601f82011682018060405250810190610eae9190611a6c565b905080610ee7576040517f90b8ec1800000000000000000000000000000000000000000000000000000000815260040160405180910390fd5b508080600101915050610def565b506003836004015f6101000a81548160ff02191690836003811115610f1d57610f1c61177a565b5b02179055505f8360030181905550837f42857b6609cb5de7422befc54368b59843f368a9704fa72a8370890c322b8dc283604051610f5b9190611af7565b60405180910390a250505050565b7f000000000000000000000000000000000000000000000000000000000000000081565b5f60015f8481526020019081526020015f205f8373ffffffffffffffffffffffffffffffffffffffff1673ffffffffffffffffffffffffffffffffffffffff1681526020019081526020015f205f9054906101000a900460ff16905092915050565b7f000000000000000000000000000000000000000000000000000000000000000073ffffffffffffffffffffffffffffffffffffffff163373ffffffffffffffffffffffffffffffffffffffff1614611074576040517f30cd747100000000000000000000000000000000000000000000000000000000815260040160405180910390fd5b5f5f5f8781526020019081526020015f2090505f5f1b815f0154036110c5576040517f5506ddd200000000000000000000000000000000000000000000000000000000815260040160405180910390fd5b600160038111156110d9576110d861177a565b5b816004015f9054906101000a900460ff1660038111156110fc576110fb61177a565b5b14611133576040517f0f5aed5e00000000000000000000000000000000000000000000000000000000815260040160405180910390fd5b828290508585905014611172576040517f663493a000000000000000000000000000000000000000000000000000000000815260040160405180910390fd5b5f5f90505f5f90505b848490508110156111ba5784848281811061119957611198611b64565b5b90506020020135826111ab9190611ac4565b9150808060010191505061117b565b50816003015481146111f8576040517f663493a000000000000000000000000000000000000000000000000000000000815260040160405180910390fd5b5f5f90505b8686905081101561134d575f85858381811061121c5761121b611b64565b5b905060200201351115611340575f7f000000000000000000000000000000000000000000000000000000000000000073ffffffffffffffffffffffffffffffffffffffff1663a9059cbb89898581811061127957611278611b64565b5b905060200201602081019061128e9190611bb8565b8888868181106112a1576112a0611b64565b5b905060200201356040518363ffffffff1660e01b81526004016112c5929190611b91565b6020604051808303815f875af11580156112e1573d5f5f3e3d5ffd5b505050506040513d601f19601f820116820180604052508101906113059190611a6c565b90508061133e576040517f90b8ec1800000000000000000000000000000000000000000000000000000000815260040160405180910390fd5b505b80806001019150506111fd565b506002826004015f6101000a81548160ff021916908360038111156113755761137461177a565b5b02179055505f8260030181905550867fdc92fc76a07abbd34dc9fa5b9f203fade368b02d7a1d25eac23b10fef30b0cc0878787876040516113b99493929190611ce1565b60405180910390a250505050505050565b828054828255905f5260205f20908101928215611440579160200282015b8281111561143f578251825f6101000a81548173ffffffffffffffffffffffffffffffffffffffff021916908373ffffffffffffffffffffffffffffffffffffffff160217905550916020019190600101906113e8565b5b50905061144d9190611451565b5090565b5b80821115611468575f815f905550600101611452565b5090565b5f5ffd5b5f5ffd5b5f819050919050565b61148681611474565b8114611490575f5ffd5b50565b5f813590506114a18161147d565b92915050565b5f73ffffffffffffffffffffffffffffffffffffffff82169050919050565b5f6114d0826114a7565b9050919050565b6114e0816114c6565b81146114ea575f5ffd5b50565b5f813590506114fb816114d7565b92915050565b5f5f604083850312156115175761151661146c565b5b5f61152485828601611493565b9250506020611535858286016114ed565b9150509250929050565b5f8115159050919050565b6115538161153f565b82525050565b5f60208201905061156c5f83018461154a565b92915050565b5f602082840312156115875761158661146c565b5b5f61159484828501611493565b91505092915050565b5f81519050919050565b5f82825260208201905092915050565b5f819050602082019050919050565b6115cf816114c6565b82525050565b5f6115e083836115c6565b60208301905092915050565b5f602082019050919050565b5f6116028261159d565b61160c81856115a7565b9350611617836115b7565b805f5b8381101561164757815161162e88826115d5565b9750611639836115ec565b92505060018101905061161a565b5085935050505092915050565b5f6020820190508181035f83015261166c81846115f8565b905092915050565b5f819050919050565b5f61169761169261168d846114a7565b611674565b6114a7565b9050919050565b5f6116a88261167d565b9050919050565b5f6116b98261169e565b9050919050565b6116c9816116af565b82525050565b5f6020820190506116e25f8301846116c0565b92915050565b5f819050919050565b6116fa816116e8565b8114611704575f5ffd5b50565b5f81359050611715816116f1565b92915050565b5f5f5f606084860312156117325761173161146c565b5b5f61173f86828701611493565b935050602061175086828701611707565b925050604061176186828701611707565b9150509250925092565b611774816116e8565b82525050565b7f4e487b71000000000000000000000000000000000000000000000000000000005f52602160045260245ffd5b600481106117b8576117b761177a565b5b50565b5f8190506117c8826117a7565b919050565b5f6117d7826117bb565b9050919050565b6117e7816117cd565b82525050565b5f60a0820190506118005f83018861176b565b61180d602083018761176b565b61181a604083018661176b565b611827606083018561176b565b61183460808301846117de565b9695505050505050565b61184781611474565b82525050565b5f60a0820190506118605f83018861183e565b61186d602083018761176b565b61187a604083018661176b565b611887606083018561176b565b61189460808301846117de565b9695505050505050565b6118a7816114c6565b82525050565b5f6020820190506118c05f83018461189e565b92915050565b5f5ffd5b5f5ffd5b5f5ffd5b5f5f83601f8401126118e7576118e66118c6565b5b8235905067ffffffffffffffff811115611904576119036118ca565b5b6020830191508360208202830111156119205761191f6118ce565b5b9250929050565b5f5f83601f84011261193c5761193b6118c6565b5b8235905067ffffffffffffffff811115611959576119586118ca565b5b602083019150836020820283011115611975576119746118ce565b5b9250929050565b5f5f5f5f5f606086880312156119955761199461146c565b5b5f6119a288828901611493565b955050602086013567ffffffffffffffff8111156119c3576119c2611470565b5b6119cf888289016118d2565b9450945050604086013567ffffffffffffffff8111156119f2576119f1611470565b5b6119fe88828901611927565b92509250509295509295909350565b5f606082019050611a205f83018661189e565b611a2d602083018561189e565b611a3a604083018461176b565b949350505050565b611a4b8161153f565b8114611a55575f5ffd5b50565b5f81519050611a6681611a42565b92915050565b5f60208284031215611a8157611a8061146c565b5b5f611a8e84828501611a58565b91505092915050565b7f4e487b71000000000000000000000000000000000000000000000000000000005f52601160045260245ffd5b5f611ace826116e8565b9150611ad9836116e8565b9250828201905080821115611af157611af0611a97565b5b92915050565b5f602082019050611b0a5f83018461176b565b92915050565b7f4e487b71000000000000000000000000000000000000000000000000000000005f52604160045260245ffd5b5f604082019050611b505f83018561176b565b611b5d602083018461176b565b9392505050565b7f4e487b71000000000000000000000000000000000000000000000000000000005f52603260045260245ffd5b5f604082019050611ba45f83018561189e565b611bb1602083018461176b565b9392505050565b5f60208284031215611bcd57611bcc61146c565b5b5f611bda848285016114ed565b91505092915050565b5f819050919050565b5f611bfa60208401846114ed565b905092915050565b5f602082019050919050565b5f611c1983856115a7565b9350611c2482611be3565b805f5b85811015611c5c57611c398284611bec565b611c4388826115d5565b9750611c4e83611c02565b925050600181019050611c27565b5085925050509392505050565b5f82825260208201905092915050565b5f5ffd5b82818337505050565b5f611c918385611c69565b93507f07ffffffffffffffffffffffffffffffffffffffffffffffffffffffffffffff831115611cc457611cc3611c79565b5b602083029250611cd5838584611c7d565b82840190509392505050565b5f6040820190508181035f830152611cfa818688611c0e565b90508181036020830152611d0f818486611c86565b90509594505050505056fea2646970667358221220445554cc83eafde64e98f8a566275779f8a0e9bfff63a706ab841ad518c436fe64736f6c634300081e0033","linkReferences":{}},"methodIdentifiers":{"activateLeague(bytes32)":"30f69aa9","cancelLeague(bytes32)":"873228e4","createLeague(bytes32,uint256,uint256)":"431a5e87","getLeague(bytes32)":"73175111","getParticipants(bytes32)":"0b0235be","hasJoined(bytes32,address)":"02cc90c7","isParticipant(bytes32,address)":"c44a8923","joinLeague(bytes32)":"2c565ccf","leagues(bytes32)":"76c1ea06","owner()":"8da5cb5b","settleLeague(bytes32,address[],uint256[])":"f9ff1b29","usdc()":"3e413bee"},"id":5}